{
	"data": {
		"bytecode": {
			"linkReferences": {},
			"object": "6080604052348015600e575f5ffd5b50610c0a8061001c5f395ff3fe608060405234801561000f575f5ffd5b506004361061004a575f3560e01c806340731c241461004e578063aa7e56831461007b578063bcc9540714610090578063fefb8dc3146100a0575b5f5ffd5b61006161005c3660046107ad565b6100b3565b6040516100729594939291906107f2565b60405180910390f35b61008e61008936600461095b565b6104ae565b005b5f54604051908152602001610072565b61008e6100ae36600461099f565b610605565b6060805f5f60605f8054905086106101095760405162461bcd60e51b81526020600482015260146024820152732837b9ba103237b2b9903737ba1032bc34b9ba1760611b60448201526064015b60405180910390fd5b5f5f878154811061011c5761011c6109ee565b905f5260205f2090600502016040518060a00160405290815f8201805461014290610a02565b80601f016020809104026020016040519081016040528092919081815260200182805461016e90610a02565b80156101b95780601f10610190576101008083540402835291602001916101b9565b820191905f5260205f20905b81548152906001019060200180831161019c57829003601f168201915b505050505081526020016001820180546101d290610a02565b80601f01602080910402602001604051908101604052809291908181526020018280546101fe90610a02565b80156102495780601f1061022057610100808354040283529160200191610249565b820191905f5260205f20905b81548152906001019060200180831161022c57829003601f168201915b50505050508152602001600282015f9054906101000a90046001600160a01b03166001600160a01b03166001600160a01b0316815260200160038201548152602001600482018054806020026020016040519081016040528092919081815260200182805480156102d757602002820191905f5260205f20905b8154815260200190600101908083116102c3575b50505050508152505090505f81608001515167ffffffffffffffff811115610301576103016108bc565b60405190808252806020026020018201604052801561035d57816020015b61034a6040518060600160405280606081526020015f6001600160a01b031681526020015f81525090565b81526020019060019003908161031f5790505b5090505f5b82608001515181101561048a57600183608001518281518110610387576103876109ee565b60200260200101518154811061039f5761039f6109ee565b905f5260205f2090600302016040518060600160405290815f820180546103c590610a02565b80601f01602080910402602001604051908101604052809291908181526020018280546103f190610a02565b801561043c5780601f106104135761010080835404028352916020019161043c565b820191905f5260205f20905b81548152906001019060200180831161041f57829003601f168201915b505050918352505060018201546001600160a01b031660208201526002909101546040909101528251839083908110610477576104776109ee565b6020908102919091010152600101610362565b50815160208301516040840151606090940151919a90995092975095509350915050565b5f5482106104f55760405162461bcd60e51b81526020600482015260146024820152732837b9ba103237b2b9903737ba1032bc34b9ba1760611b6044820152606401610100565b6001805460408051606081018252848152336020820152429181019190915281830183555f929092528151909190600383027fb10e2d527612073b26eecdfd717e6a320cf44b4afac2b0732d9fcbe2b7fa0cf6019081906105569082610a86565b5060208201516001820180546001600160a01b0319166001600160a01b039092169190911790556040909101516002909101555f80548490811061059c5761059c6109ee565b5f9182526020808320600460059093020191909101805460018101825590835291200181905560405183907fe8a2eb2f66fb2261d27134f23a85e6a2fa78349b4c83a4555899d6bb75a64e14906105f890859033904290610b41565b60405180910390a2505050565b5f6040518060a00160405280848152602001838152602001336001600160a01b031681526020014281526020015f67ffffffffffffffff81111561064b5761064b6108bc565b604051908082528060200260200182016040528015610674578160200160208202803683370190505b50905281546001810183555f9283526020909220815191926005020190819061069d9082610a86565b50602082015160018201906106b29082610a86565b5060408201516002820180546001600160a01b0319166001600160a01b0390921691909117905560608201516003820155608082015180516106fe916004840191602090910190610750565b50505f5461070f9150600190610b6e565b7f705e43b3851030746ce718a35d67293d782926c51ab1fc9e7ec05d1444790da6838333426040516107449493929190610b93565b60405180910390a25050565b828054828255905f5260205f20908101928215610789579160200282015b8281111561078957825182559160200191906001019061076e565b50610795929150610799565b5090565b5b80821115610795575f815560010161079a565b5f602082840312156107bd575f5ffd5b5035919050565b5f81518084528060208401602086015e5f602082860101526020601f19601f83011685010191505092915050565b60a081525f61080460a08301886107c4565b828103602084015261081681886107c4565b6001600160a01b0387166040850152606084018690528381036080850152845180825290915060208083019190600582901b840181019087015f5b838110156108ab57601f19868403018552815180516060855261087760608601826107c4565b6020838101516001600160a01b03168782015260409384015193909601929092525094830194929190910190600101610851565b50909b9a5050505050505050505050565b634e487b7160e01b5f52604160045260245ffd5b5f82601f8301126108df575f5ffd5b813567ffffffffffffffff8111156108f9576108f96108bc565b604051601f8201601f19908116603f0116810167ffffffffffffffff81118282101715610928576109286108bc565b60405281815283820160200185101561093f575f5ffd5b816020850160208301375f918101602001919091529392505050565b5f5f6040838503121561096c575f5ffd5b82359150602083013567ffffffffffffffff811115610989575f5ffd5b610995858286016108d0565b9150509250929050565b5f5f604083850312156109b0575f5ffd5b823567ffffffffffffffff8111156109c6575f5ffd5b6109d2858286016108d0565b925050602083013567ffffffffffffffff811115610989575f5ffd5b634e487b7160e01b5f52603260045260245ffd5b600181811c90821680610a1657607f821691505b602082108103610a3457634e487b7160e01b5f52602260045260245ffd5b50919050565b601f821115610a8157805f5260205f20601f840160051c81016020851015610a5f5750805b601f840160051c820191505b81811015610a7e575f8155600101610a6b565b50505b505050565b815167ffffffffffffffff811115610aa057610aa06108bc565b610ab481610aae8454610a02565b84610a3a565b6020601f821160018114610ae6575f8315610acf5750848201515b5f19600385901b1c1916600184901b178455610a7e565b5f84815260208120601f198516915b82811015610b155787850151825560209485019460019092019101610af5565b5084821015610b3257868401515f19600387901b60f8161c191681555b50505050600190811b01905550565b606081525f610b5360608301866107c4565b6001600160a01b039490941660208301525060400152919050565b81810381811115610b8d57634e487b7160e01b5f52601160045260245ffd5b92915050565b608081525f610ba560808301876107c4565b8281036020840152610bb781876107c4565b6001600160a01b039590951660408401525050606001529291505056fea26469706673582212205564426beaace5ca27c0f4dbcb90b491e42529901260cb43fee63767aea7b61364736f6c634300081d0033",
			"opcodes": "PUSH1 0x80 PUSH1 0x40 MSTORE CALLVALUE DUP1 ISZERO PUSH1 0xE JUMPI PUSH0 PUSH0 REVERT JUMPDEST POP PUSH2 0xC0A DUP1 PUSH2 0x1C PUSH0 CODECOPY PUSH0 RETURN INVALID PUSH1 0x80 PUSH1 0x40 MSTORE CALLVALUE DUP1 ISZERO PUSH2 0xF JUMPI PUSH0 PUSH0 REVERT JUMPDEST POP PUSH1 0x4 CALLDATASIZE LT PUSH2 0x4A JUMPI PUSH0 CALLDATALOAD PUSH1 0xE0 SHR DUP1 PUSH4 0x40731C24 EQ PUSH2 0x4E JUMPI DUP1 PUSH4 0xAA7E5683 EQ PUSH2 0x7B JUMPI DUP1 PUSH4 0xBCC95407 EQ PUSH2 0x90 JUMPI DUP1 PUSH4 0xFEFB8DC3 EQ PUSH2 0xA0 JUMPI JUMPDEST PUSH0 PUSH0 REVERT JUMPDEST PUSH2 0x61 PUSH2 0x5C CALLDATASIZE PUSH1 0x4 PUSH2 0x7AD JUMP JUMPDEST PUSH2 0xB3 JUMP JUMPDEST PUSH1 0x40 MLOAD PUSH2 0x72 SWAP6 SWAP5 SWAP4 SWAP3 SWAP2 SWAP1 PUSH2 0x7F2 JUMP JUMPDEST PUSH1 0x40 MLOAD DUP1 SWAP2 SUB SWAP1 RETURN JUMPDEST PUSH2 0x8E PUSH2 0x89 CALLDATASIZE PUSH1 0x4 PUSH2 0x95B JUMP JUMPDEST PUSH2 0x4AE JUMP JUMPDEST STOP JUMPDEST PUSH0 SLOAD PUSH1 0x40 MLOAD SWAP1 DUP2 MSTORE PUSH1 0x20 ADD PUSH2 0x72 JUMP JUMPDEST PUSH2 0x8E PUSH2 0xAE CALLDATASIZE PUSH1 0x4 PUSH2 0x99F JUMP JUMPDEST PUSH2 0x605 JUMP JUMPDEST PUSH1 0x60 DUP1 PUSH0 PUSH0 PUSH1 0x60 PUSH0 DUP1 SLOAD SWAP1 POP DUP7 LT PUSH2 0x109 JUMPI PUSH1 0x40 MLOAD PUSH3 0x461BCD PUSH1 0xE5 SHL DUP2 MSTORE PUSH1 0x20 PUSH1 0x4 DUP3 ADD MSTORE PUSH1 0x14 PUSH1 0x24 DUP3 ADD MSTORE PUSH20 0x2837B9BA103237B2B9903737BA1032BC34B9BA17 PUSH1 0x61 SHL PUSH1 0x44 DUP3 ADD MSTORE PUSH1 0x64 ADD JUMPDEST PUSH1 0x40 MLOAD DUP1 SWAP2 SUB SWAP1 REVERT JUMPDEST PUSH0 PUSH0 DUP8 DUP2 SLOAD DUP2 LT PUSH2 0x11C JUMPI PUSH2 0x11C PUSH2 0x9EE JUMP JUMPDEST SWAP1 PUSH0 MSTORE PUSH1 0x20 PUSH0 KECCAK256 SWAP1 PUSH1 0x5 MUL ADD PUSH1 0x40 MLOAD DUP1 PUSH1 0xA0 ADD PUSH1 0x40 MSTORE SWAP1 DUP2 PUSH0 DUP3 ADD DUP1 SLOAD PUSH2 0x142 SWAP1 PUSH2 0xA02 JUMP JUMPDEST DUP1 PUSH1 0x1F ADD PUSH1 0x20 DUP1 SWAP2 DIV MUL PUSH1 0x20 ADD PUSH1 0x40 MLOAD SWAP1 DUP2 ADD PUSH1 0x40 MSTORE DUP1 SWAP3 SWAP2 SWAP1 DUP2 DUP2 MSTORE PUSH1 0x20 ADD DUP3 DUP1 SLOAD PUSH2 0x16E SWAP1 PUSH2 0xA02 JUMP JUMPDEST DUP1 ISZERO PUSH2 0x1B9 JUMPI DUP1 PUSH1 0x1F LT PUSH2 0x190 JUMPI PUSH2 0x100 DUP1 DUP4 SLOAD DIV MUL DUP4 MSTORE SWAP2 PUSH1 0x20 ADD SWAP2 PUSH2 0x1B9 JUMP JUMPDEST DUP3 ADD SWAP2 SWAP1 PUSH0 MSTORE PUSH1 0x20 PUSH0 KECCAK256 SWAP1 JUMPDEST DUP2 SLOAD DUP2 MSTORE SWAP1 PUSH1 0x1 ADD SWAP1 PUSH1 0x20 ADD DUP1 DUP4 GT PUSH2 0x19C JUMPI DUP3 SWAP1 SUB PUSH1 0x1F AND DUP3 ADD SWAP2 JUMPDEST POP POP POP POP POP DUP2 MSTORE PUSH1 0x20 ADD PUSH1 0x1 DUP3 ADD DUP1 SLOAD PUSH2 0x1D2 SWAP1 PUSH2 0xA02 JUMP JUMPDEST DUP1 PUSH1 0x1F ADD PUSH1 0x20 DUP1 SWAP2 DIV MUL PUSH1 0x20 ADD PUSH1 0x40 MLOAD SWAP1 DUP2 ADD PUSH1 0x40 MSTORE DUP1 SWAP3 SWAP2 SWAP1 DUP2 DUP2 MSTORE PUSH1 0x20 ADD DUP3 DUP1 SLOAD PUSH2 0x1FE SWAP1 PUSH2 0xA02 JUMP JUMPDEST DUP1 ISZERO PUSH2 0x249 JUMPI DUP1 PUSH1 0x1F LT PUSH2 0x220 JUMPI PUSH2 0x100 DUP1 DUP4 SLOAD DIV MUL DUP4 MSTORE SWAP2 PUSH1 0x20 ADD SWAP2 PUSH2 0x249 JUMP JUMPDEST DUP3 ADD SWAP2 SWAP1 PUSH0 MSTORE PUSH1 0x20 PUSH0 KECCAK256 SWAP1 JUMPDEST DUP2 SLOAD DUP2 MSTORE SWAP1 PUSH1 0x1 ADD SWAP1 PUSH1 0x20 ADD DUP1 DUP4 GT PUSH2 0x22C JUMPI DUP3 SWAP1 SUB PUSH1 0x1F AND DUP3 ADD SWAP2 JUMPDEST POP POP POP POP POP DUP2 MSTORE PUSH1 0x20 ADD PUSH1 0x2 DUP3 ADD PUSH0 SWAP1 SLOAD SWAP1 PUSH2 0x100 EXP SWAP1 DIV PUSH1 0x1 PUSH1 0x1 PUSH1 0xA0 SHL SUB AND PUSH1 0x1 PUSH1 0x1 PUSH1 0xA0 SHL SUB AND PUSH1 0x1 PUSH1 0x1 PUSH1 0xA0 SHL SUB AND DUP2 MSTORE PUSH1 0x20 ADD PUSH1 0x3 DUP3 ADD SLOAD DUP2 MSTORE PUSH1 0x20 ADD PUSH1 0x4 DUP3 ADD DUP1 SLOAD DUP1 PUSH1 0x20 MUL PUSH1 0x20 ADD PUSH1 0x40 MLOAD SWAP1 DUP2 ADD PUSH1 0x40 MSTORE DUP1 SWAP3 SWAP2 SWAP1 DUP2 DUP2 MSTORE PUSH1 0x20 ADD DUP3 DUP1 SLOAD DUP1 ISZERO PUSH2 0x2D7 JUMPI PUSH1 0x20 MUL DUP3 ADD SWAP2 SWAP1 PUSH0 MSTORE PUSH1 0x20 PUSH0 KECCAK256 SWAP1 JUMPDEST DUP2 SLOAD DUP2 MSTORE PUSH1 0x20 ADD SWAP1 PUSH1 0x1 ADD SWAP1 DUP1 DUP4 GT PUSH2 0x2C3 JUMPI JUMPDEST POP POP POP POP POP DUP2 MSTORE POP POP SWAP1 POP PUSH0 DUP2 PUSH1 0x80 ADD MLOAD MLOAD PUSH8 0xFFFFFFFFFFFFFFFF DUP2 GT ISZERO PUSH2 0x301 JUMPI PUSH2 0x301 PUSH2 0x8BC JUMP JUMPDEST PUSH1 0x40 MLOAD SWAP1 DUP1 DUP3 MSTORE DUP1 PUSH1 0x20 MUL PUSH1 0x20 ADD DUP3 ADD PUSH1 0x40 MSTORE DUP1 ISZERO PUSH2 0x35D JUMPI DUP2 PUSH1 0x20 ADD JUMPDEST PUSH2 0x34A PUSH1 0x40 MLOAD DUP1 PUSH1 0x60 ADD PUSH1 0x40 MSTORE DUP1 PUSH1 0x60 DUP2 MSTORE PUSH1 0x20 ADD PUSH0 PUSH1 0x1 PUSH1 0x1 PUSH1 0xA0 SHL SUB AND DUP2 MSTORE PUSH1 0x20 ADD PUSH0 DUP2 MSTORE POP SWAP1 JUMP JUMPDEST DUP2 MSTORE PUSH1 0x20 ADD SWAP1 PUSH1 0x1 SWAP1 SUB SWAP1 DUP2 PUSH2 0x31F JUMPI SWAP1 POP JUMPDEST POP SWAP1 POP PUSH0 JUMPDEST DUP3 PUSH1 0x80 ADD MLOAD MLOAD DUP2 LT ISZERO PUSH2 0x48A JUMPI PUSH1 0x1 DUP4 PUSH1 0x80 ADD MLOAD DUP3 DUP2 MLOAD DUP2 LT PUSH2 0x387 JUMPI PUSH2 0x387 PUSH2 0x9EE JUMP JUMPDEST PUSH1 0x20 MUL PUSH1 0x20 ADD ADD MLOAD DUP2 SLOAD DUP2 LT PUSH2 0x39F JUMPI PUSH2 0x39F PUSH2 0x9EE JUMP JUMPDEST SWAP1 PUSH0 MSTORE PUSH1 0x20 PUSH0 KECCAK256 SWAP1 PUSH1 0x3 MUL ADD PUSH1 0x40 MLOAD DUP1 PUSH1 0x60 ADD PUSH1 0x40 MSTORE SWAP1 DUP2 PUSH0 DUP3 ADD DUP1 SLOAD PUSH2 0x3C5 SWAP1 PUSH2 0xA02 JUMP JUMPDEST DUP1 PUSH1 0x1F ADD PUSH1 0x20 DUP1 SWAP2 DIV MUL PUSH1 0x20 ADD PUSH1 0x40 MLOAD SWAP1 DUP2 ADD PUSH1 0x40 MSTORE DUP1 SWAP3 SWAP2 SWAP1 DUP2 DUP2 MSTORE PUSH1 0x20 ADD DUP3 DUP1 SLOAD PUSH2 0x3F1 SWAP1 PUSH2 0xA02 JUMP JUMPDEST DUP1 ISZERO PUSH2 0x43C JUMPI DUP1 PUSH1 0x1F LT PUSH2 0x413 JUMPI PUSH2 0x100 DUP1 DUP4 SLOAD DIV MUL DUP4 MSTORE SWAP2 PUSH1 0x20 ADD SWAP2 PUSH2 0x43C JUMP JUMPDEST DUP3 ADD SWAP2 SWAP1 PUSH0 MSTORE PUSH1 0x20 PUSH0 KECCAK256 SWAP1 JUMPDEST DUP2 SLOAD DUP2 MSTORE SWAP1 PUSH1 0x1 ADD SWAP1 PUSH1 0x20 ADD DUP1 DUP4 GT PUSH2 0x41F JUMPI DUP3 SWAP1 SUB PUSH1 0x1F AND DUP3 ADD SWAP2 JUMPDEST POP POP POP SWAP2 DUP4 MSTORE POP POP PUSH1 0x1 DUP3 ADD SLOAD PUSH1 0x1 PUSH1 0x1 PUSH1 0xA0 SHL SUB AND PUSH1 0x20 DUP3 ADD MSTORE PUSH1 0x2 SWAP1 SWAP2 ADD SLOAD PUSH1 0x40 SWAP1 SWAP2 ADD MSTORE DUP3 MLOAD DUP4 SWAP1 DUP4 SWAP1 DUP2 LT PUSH2 0x477 JUMPI PUSH2 0x477 PUSH2 0x9EE JUMP JUMPDEST PUSH1 0x20 SWAP1 DUP2 MUL SWAP2 SWAP1 SWAP2 ADD ADD MSTORE PUSH1 0x1 ADD PUSH2 0x362 JUMP JUMPDEST POP DUP2 MLOAD PUSH1 0x20 DUP4 ADD MLOAD PUSH1 0x40 DUP5 ADD MLOAD PUSH1 0x60 SWAP1 SWAP5 ADD MLOAD SWAP2 SWAP11 SWAP1 SWAP10 POP SWAP3 SWAP8 POP SWAP6 POP SWAP4 POP SWAP2 POP POP JUMP JUMPDEST PUSH0 SLOAD DUP3 LT PUSH2 0x4F5 JUMPI PUSH1 0x40 MLOAD PUSH3 0x461BCD PUSH1 0xE5 SHL DUP2 MSTORE PUSH1 0x20 PUSH1 0x4 DUP3 ADD MSTORE PUSH1 0x14 PUSH1 0x24 DUP3 ADD MSTORE PUSH20 0x2837B9BA103237B2B9903737BA1032BC34B9BA17 PUSH1 0x61 SHL PUSH1 0x44 DUP3 ADD MSTORE PUSH1 0x64 ADD PUSH2 0x100 JUMP JUMPDEST PUSH1 0x1 DUP1 SLOAD PUSH1 0x40 DUP1 MLOAD PUSH1 0x60 DUP2 ADD DUP3 MSTORE DUP5 DUP2 MSTORE CALLER PUSH1 0x20 DUP3 ADD MSTORE TIMESTAMP SWAP2 DUP2 ADD SWAP2 SWAP1 SWAP2 MSTORE DUP2 DUP4 ADD DUP4 SSTORE PUSH0 SWAP3 SWAP1 SWAP3 MSTORE DUP2 MLOAD SWAP1 SWAP2 SWAP1 PUSH1 0x3 DUP4 MUL PUSH32 0xB10E2D527612073B26EECDFD717E6A320CF44B4AFAC2B0732D9FCBE2B7FA0CF6 ADD SWAP1 DUP2 SWAP1 PUSH2 0x556 SWAP1 DUP3 PUSH2 0xA86 JUMP JUMPDEST POP PUSH1 0x20 DUP3 ADD MLOAD PUSH1 0x1 DUP3 ADD DUP1 SLOAD PUSH1 0x1 PUSH1 0x1 PUSH1 0xA0 SHL SUB NOT AND PUSH1 0x1 PUSH1 0x1 PUSH1 0xA0 SHL SUB SWAP1 SWAP3 AND SWAP2 SWAP1 SWAP2 OR SWAP1 SSTORE PUSH1 0x40 SWAP1 SWAP2 ADD MLOAD PUSH1 0x2 SWAP1 SWAP2 ADD SSTORE PUSH0 DUP1 SLOAD DUP5 SWAP1 DUP2 LT PUSH2 0x59C JUMPI PUSH2 0x59C PUSH2 0x9EE JUMP JUMPDEST PUSH0 SWAP2 DUP3 MSTORE PUSH1 0x20 DUP1 DUP4 KECCAK256 PUSH1 0x4 PUSH1 0x5 SWAP1 SWAP4 MUL ADD SWAP2 SWAP1 SWAP2 ADD DUP1 SLOAD PUSH1 0x1 DUP2 ADD DUP3 SSTORE SWAP1 DUP4 MSTORE SWAP2 KECCAK256 ADD DUP2 SWAP1 SSTORE PUSH1 0x40 MLOAD DUP4 SWAP1 PUSH32 0xE8A2EB2F66FB2261D27134F23A85E6A2FA78349B4C83A4555899D6BB75A64E14 SWAP1 PUSH2 0x5F8 SWAP1 DUP6 SWAP1 CALLER SWAP1 TIMESTAMP SWAP1 PUSH2 0xB41 JUMP JUMPDEST PUSH1 0x40 MLOAD DUP1 SWAP2 SUB SWAP1 LOG2 POP POP POP JUMP JUMPDEST PUSH0 PUSH1 0x40 MLOAD DUP1 PUSH1 0xA0 ADD PUSH1 0x40 MSTORE DUP1 DUP5 DUP2 MSTORE PUSH1 0x20 ADD DUP4 DUP2 MSTORE PUSH1 0x20 ADD CALLER PUSH1 0x1 PUSH1 0x1 PUSH1 0xA0 SHL SUB AND DUP2 MSTORE PUSH1 0x20 ADD TIMESTAMP DUP2 MSTORE PUSH1 0x20 ADD PUSH0 PUSH8 0xFFFFFFFFFFFFFFFF DUP2 GT ISZERO PUSH2 0x64B JUMPI PUSH2 0x64B PUSH2 0x8BC JUMP JUMPDEST PUSH1 0x40 MLOAD SWAP1 DUP1 DUP3 MSTORE DUP1 PUSH1 0x20 MUL PUSH1 0x20 ADD DUP3 ADD PUSH1 0x40 MSTORE DUP1 ISZERO PUSH2 0x674 JUMPI DUP2 PUSH1 0x20 ADD PUSH1 0x20 DUP3 MUL DUP1 CALLDATASIZE DUP4 CALLDATACOPY ADD SWAP1 POP JUMPDEST POP SWAP1 MSTORE DUP2 SLOAD PUSH1 0x1 DUP2 ADD DUP4 SSTORE PUSH0 SWAP3 DUP4 MSTORE PUSH1 0x20 SWAP1 SWAP3 KECCAK256 DUP2 MLOAD SWAP2 SWAP3 PUSH1 0x5 MUL ADD SWAP1 DUP2 SWAP1 PUSH2 0x69D SWAP1 DUP3 PUSH2 0xA86 JUMP JUMPDEST POP PUSH1 0x20 DUP3 ADD MLOAD PUSH1 0x1 DUP3 ADD SWAP1 PUSH2 0x6B2 SWAP1 DUP3 PUSH2 0xA86 JUMP JUMPDEST POP PUSH1 0x40 DUP3 ADD MLOAD PUSH1 0x2 DUP3 ADD DUP1 SLOAD PUSH1 0x1 PUSH1 0x1 PUSH1 0xA0 SHL SUB NOT AND PUSH1 0x1 PUSH1 0x1 PUSH1 0xA0 SHL SUB SWAP1 SWAP3 AND SWAP2 SWAP1 SWAP2 OR SWAP1 SSTORE PUSH1 0x60 DUP3 ADD MLOAD PUSH1 0x3 DUP3 ADD SSTORE PUSH1 0x80 DUP3 ADD MLOAD DUP1 MLOAD PUSH2 0x6FE SWAP2 PUSH1 0x4 DUP5 ADD SWAP2 PUSH1 0x20 SWAP1 SWAP2 ADD SWAP1 PUSH2 0x750 JUMP JUMPDEST POP POP PUSH0 SLOAD PUSH2 0x70F SWAP2 POP PUSH1 0x1 SWAP1 PUSH2 0xB6E JUMP JUMPDEST PUSH32 0x705E43B3851030746CE718A35D67293D782926C51AB1FC9E7EC05D1444790DA6 DUP4 DUP4 CALLER TIMESTAMP PUSH1 0x40 MLOAD PUSH2 0x744 SWAP5 SWAP4 SWAP3 SWAP2 SWAP1 PUSH2 0xB93 JUMP JUMPDEST PUSH1 0x40 MLOAD DUP1 SWAP2 SUB SWAP1 LOG2 POP POP JUMP JUMPDEST DUP3 DUP1 SLOAD DUP3 DUP3 SSTORE SWAP1 PUSH0 MSTORE PUSH1 0x20 PUSH0 KECCAK256 SWAP1 DUP2 ADD SWAP3 DUP3 ISZERO PUSH2 0x789 JUMPI SWAP2 PUSH1 0x20 MUL DUP3 ADD JUMPDEST DUP3 DUP2 GT ISZERO PUSH2 0x789 JUMPI DUP3 MLOAD DUP3 SSTORE SWAP2 PUSH1 0x20 ADD SWAP2 SWAP1 PUSH1 0x1 ADD SWAP1 PUSH2 0x76E JUMP JUMPDEST POP PUSH2 0x795 SWAP3 SWAP2 POP PUSH2 0x799 JUMP JUMPDEST POP SWAP1 JUMP JUMPDEST JUMPDEST DUP1 DUP3 GT ISZERO PUSH2 0x795 JUMPI PUSH0 DUP2 SSTORE PUSH1 0x1 ADD PUSH2 0x79A JUMP JUMPDEST PUSH0 PUSH1 0x20 DUP3 DUP5 SUB SLT ISZERO PUSH2 0x7BD JUMPI PUSH0 PUSH0 REVERT JUMPDEST POP CALLDATALOAD SWAP2 SWAP1 POP JUMP JUMPDEST PUSH0 DUP2 MLOAD DUP1 DUP5 MSTORE DUP1 PUSH1 0x20 DUP5 ADD PUSH1 0x20 DUP7 ADD MCOPY PUSH0 PUSH1 0x20 DUP3 DUP7 ADD ADD MSTORE PUSH1 0x20 PUSH1 0x1F NOT PUSH1 0x1F DUP4 ADD AND DUP6 ADD ADD SWAP2 POP POP SWAP3 SWAP2 POP POP JUMP JUMPDEST PUSH1 0xA0 DUP2 MSTORE PUSH0 PUSH2 0x804 PUSH1 0xA0 DUP4 ADD DUP9 PUSH2 0x7C4 JUMP JUMPDEST DUP3 DUP2 SUB PUSH1 0x20 DUP5 ADD MSTORE PUSH2 0x816 DUP2 DUP9 PUSH2 0x7C4 JUMP JUMPDEST PUSH1 0x1 PUSH1 0x1 PUSH1 0xA0 SHL SUB DUP8 AND PUSH1 0x40 DUP6 ADD MSTORE PUSH1 0x60 DUP5 ADD DUP7 SWAP1 MSTORE DUP4 DUP2 SUB PUSH1 0x80 DUP6 ADD MSTORE DUP5 MLOAD DUP1 DUP3 MSTORE SWAP1 SWAP2 POP PUSH1 0x20 DUP1 DUP4 ADD SWAP2 SWAP1 PUSH1 0x5 DUP3 SWAP1 SHL DUP5 ADD DUP2 ADD SWAP1 DUP8 ADD PUSH0 JUMPDEST DUP4 DUP2 LT ISZERO PUSH2 0x8AB JUMPI PUSH1 0x1F NOT DUP7 DUP5 SUB ADD DUP6 MSTORE DUP2 MLOAD DUP1 MLOAD PUSH1 0x60 DUP6 MSTORE PUSH2 0x877 PUSH1 0x60 DUP7 ADD DUP3 PUSH2 0x7C4 JUMP JUMPDEST PUSH1 0x20 DUP4 DUP2 ADD MLOAD PUSH1 0x1 PUSH1 0x1 PUSH1 0xA0 SHL SUB AND DUP8 DUP3 ADD MSTORE PUSH1 0x40 SWAP4 DUP5 ADD MLOAD SWAP4 SWAP1 SWAP7 ADD SWAP3 SWAP1 SWAP3 MSTORE POP SWAP5 DUP4 ADD SWAP5 SWAP3 SWAP2 SWAP1 SWAP2 ADD SWAP1 PUSH1 0x1 ADD PUSH2 0x851 JUMP JUMPDEST POP SWAP1 SWAP12 SWAP11 POP POP POP POP POP POP POP POP POP POP POP JUMP JUMPDEST PUSH4 0x4E487B71 PUSH1 0xE0 SHL PUSH0 MSTORE PUSH1 0x41 PUSH1 0x4 MSTORE PUSH1 0x24 PUSH0 REVERT JUMPDEST PUSH0 DUP3 PUSH1 0x1F DUP4 ADD SLT PUSH2 0x8DF JUMPI PUSH0 PUSH0 REVERT JUMPDEST DUP2 CALLDATALOAD PUSH8 0xFFFFFFFFFFFFFFFF DUP2 GT ISZERO PUSH2 0x8F9 JUMPI PUSH2 0x8F9 PUSH2 0x8BC JUMP JUMPDEST PUSH1 0x40 MLOAD PUSH1 0x1F DUP3 ADD PUSH1 0x1F NOT SWAP1 DUP2 AND PUSH1 0x3F ADD AND DUP2 ADD PUSH8 0xFFFFFFFFFFFFFFFF DUP2 GT DUP3 DUP3 LT OR ISZERO PUSH2 0x928 JUMPI PUSH2 0x928 PUSH2 0x8BC JUMP JUMPDEST PUSH1 0x40 MSTORE DUP2 DUP2 MSTORE DUP4 DUP3 ADD PUSH1 0x20 ADD DUP6 LT ISZERO PUSH2 0x93F JUMPI PUSH0 PUSH0 REVERT JUMPDEST DUP2 PUSH1 0x20 DUP6 ADD PUSH1 0x20 DUP4 ADD CALLDATACOPY PUSH0 SWAP2 DUP2 ADD PUSH1 0x20 ADD SWAP2 SWAP1 SWAP2 MSTORE SWAP4 SWAP3 POP POP POP JUMP JUMPDEST PUSH0 PUSH0 PUSH1 0x40 DUP4 DUP6 SUB SLT ISZERO PUSH2 0x96C JUMPI PUSH0 PUSH0 REVERT JUMPDEST DUP3 CALLDATALOAD SWAP2 POP PUSH1 0x20 DUP4 ADD CALLDATALOAD PUSH8 0xFFFFFFFFFFFFFFFF DUP2 GT ISZERO PUSH2 0x989 JUMPI PUSH0 PUSH0 REVERT JUMPDEST PUSH2 0x995 DUP6 DUP3 DUP7 ADD PUSH2 0x8D0 JUMP JUMPDEST SWAP2 POP POP SWAP3 POP SWAP3 SWAP1 POP JUMP JUMPDEST PUSH0 PUSH0 PUSH1 0x40 DUP4 DUP6 SUB SLT ISZERO PUSH2 0x9B0 JUMPI PUSH0 PUSH0 REVERT JUMPDEST DUP3 CALLDATALOAD PUSH8 0xFFFFFFFFFFFFFFFF DUP2 GT ISZERO PUSH2 0x9C6 JUMPI PUSH0 PUSH0 REVERT JUMPDEST PUSH2 0x9D2 DUP6 DUP3 DUP7 ADD PUSH2 0x8D0 JUMP JUMPDEST SWAP3 POP POP PUSH1 0x20 DUP4 ADD CALLDATALOAD PUSH8 0xFFFFFFFFFFFFFFFF DUP2 GT ISZERO PUSH2 0x989 JUMPI PUSH0 PUSH0 REVERT JUMPDEST PUSH4 0x4E487B71 PUSH1 0xE0 SHL PUSH0 MSTORE PUSH1 0x32 PUSH1 0x4 MSTORE PUSH1 0x24 PUSH0 REVERT JUMPDEST PUSH1 0x1 DUP2 DUP2 SHR SWAP1 DUP3 AND DUP1 PUSH2 0xA16 JUMPI PUSH1 0x7F DUP3 AND SWAP2 POP JUMPDEST PUSH1 0x20 DUP3 LT DUP2 SUB PUSH2 0xA34 JUMPI PUSH4 0x4E487B71 PUSH1 0xE0 SHL PUSH0 MSTORE PUSH1 0x22 PUSH1 0x4 MSTORE PUSH1 0x24 PUSH0 REVERT JUMPDEST POP SWAP2 SWAP1 POP JUMP JUMPDEST PUSH1 0x1F DUP3 GT ISZERO PUSH2 0xA81 JUMPI DUP1 PUSH0 MSTORE PUSH1 0x20 PUSH0 KECCAK256 PUSH1 0x1F DUP5 ADD PUSH1 0x5 SHR DUP2 ADD PUSH1 0x20 DUP6 LT ISZERO PUSH2 0xA5F JUMPI POP DUP1 JUMPDEST PUSH1 0x1F DUP5 ADD PUSH1 0x5 SHR DUP3 ADD SWAP2 POP JUMPDEST DUP2 DUP2 LT ISZERO PUSH2 0xA7E JUMPI PUSH0 DUP2 SSTORE PUSH1 0x1 ADD PUSH2 0xA6B JUMP JUMPDEST POP POP JUMPDEST POP POP POP JUMP JUMPDEST DUP2 MLOAD PUSH8 0xFFFFFFFFFFFFFFFF DUP2 GT ISZERO PUSH2 0xAA0 JUMPI PUSH2 0xAA0 PUSH2 0x8BC JUMP JUMPDEST PUSH2 0xAB4 DUP2 PUSH2 0xAAE DUP5 SLOAD PUSH2 0xA02 JUMP JUMPDEST DUP5 PUSH2 0xA3A JUMP JUMPDEST PUSH1 0x20 PUSH1 0x1F DUP3 GT PUSH1 0x1 DUP2 EQ PUSH2 0xAE6 JUMPI PUSH0 DUP4 ISZERO PUSH2 0xACF JUMPI POP DUP5 DUP3 ADD MLOAD JUMPDEST PUSH0 NOT PUSH1 0x3 DUP6 SWAP1 SHL SHR NOT AND PUSH1 0x1 DUP5 SWAP1 SHL OR DUP5 SSTORE PUSH2 0xA7E JUMP JUMPDEST PUSH0 DUP5 DUP2 MSTORE PUSH1 0x20 DUP2 KECCAK256 PUSH1 0x1F NOT DUP6 AND SWAP2 JUMPDEST DUP3 DUP2 LT ISZERO PUSH2 0xB15 JUMPI DUP8 DUP6 ADD MLOAD DUP3 SSTORE PUSH1 0x20 SWAP5 DUP6 ADD SWAP5 PUSH1 0x1 SWAP1 SWAP3 ADD SWAP2 ADD PUSH2 0xAF5 JUMP JUMPDEST POP DUP5 DUP3 LT ISZERO PUSH2 0xB32 JUMPI DUP7 DUP5 ADD MLOAD PUSH0 NOT PUSH1 0x3 DUP8 SWAP1 SHL PUSH1 0xF8 AND SHR NOT AND DUP2 SSTORE JUMPDEST POP POP POP POP PUSH1 0x1 SWAP1 DUP2 SHL ADD SWAP1 SSTORE POP JUMP JUMPDEST PUSH1 0x60 DUP2 MSTORE PUSH0 PUSH2 0xB53 PUSH1 0x60 DUP4 ADD DUP7 PUSH2 0x7C4 JUMP JUMPDEST PUSH1 0x1 PUSH1 0x1 PUSH1 0xA0 SHL SUB SWAP5 SWAP1 SWAP5 AND PUSH1 0x20 DUP4 ADD MSTORE POP PUSH1 0x40 ADD MSTORE SWAP2 SWAP1 POP JUMP JUMPDEST DUP2 DUP2 SUB DUP2 DUP2 GT ISZERO PUSH2 0xB8D JUMPI PUSH4 0x4E487B71 PUSH1 0xE0 SHL PUSH0 MSTORE PUSH1 0x11 PUSH1 0x4 MSTORE PUSH1 0x24 PUSH0 REVERT JUMPDEST SWAP3 SWAP2 POP POP JUMP JUMPDEST PUSH1 0x80 DUP2 MSTORE PUSH0 PUSH2 0xBA5 PUSH1 0x80 DUP4 ADD DUP8 PUSH2 0x7C4 JUMP JUMPDEST DUP3 DUP2 SUB PUSH1 0x20 DUP5 ADD MSTORE PUSH2 0xBB7 DUP2 DUP8 PUSH2 0x7C4 JUMP JUMPDEST PUSH1 0x1 PUSH1 0x1 PUSH1 0xA0 SHL SUB SWAP6 SWAP1 SWAP6 AND PUSH1 0x40 DUP5 ADD MSTORE POP POP PUSH1 0x60 ADD MSTORE SWAP3 SWAP2 POP POP JUMP INVALID LOG2 PUSH5 0x6970667358 0x22 SLT KECCAK256 SSTORE PUSH5 0x426BEAACE5 0xCA 0x27 0xC0 DELEGATECALL 0xDB 0xCB SWAP1 0xB4 SWAP2 RETF 0x25 0x29 SWAP1 SLT PUSH1 0xCB NUMBER INVALID DUPN 0x37 PUSH8 0xAEA7B61364736F6C PUSH4 0x4300081D STOP CALLER "
		},
		"gasEstimates": {
			"creation": {
				"codeDepositCost": "616400",
				"executionCost": "649",
				"totalCost": "617049"
			},
			"external": {
				"addComment(uint256,string)": "infinite",
				"getPost(uint256)": "infinite",
				"getPostCount()": "2300",
				"publishPost(string,string)": "infinite"
			}
		},
		"methodIdentifiers": {
			"addComment(uint256,string)": "aa7e5683",
			"getPost(uint256)": "40731c24",
			"getPostCount()": "bcc95407",
			"publishPost(string,string)": "fefb8dc3"
		}
	},
	"abi": [
		{
			"anonymous": false,
			"inputs": [
				{
					"indexed": true,
					"internalType": "uint256",
					"name": "postId",
					"type": "uint256"
				},
				{
					"indexed": false,
					"internalType": "string",
					"name": "commentText",
					"type": "string"
				},
				{
					"indexed": false,
					"internalType": "address",
					"name": "commenter",
					"type": "address"
				},
				{
					"indexed": false,
					"internalType": "uint256",
					"name": "timestamp",
					"type": "uint256"
				}
			],
			"name": "CommentAdded",
			"type": "event"
		},
		{
			"anonymous": false,
			"inputs": [
				{
					"indexed": true,
					"internalType": "uint256",
					"name": "postId",
					"type": "uint256"
				},
				{
					"indexed": false,
					"internalType": "string",
					"name": "title",
					"type": "string"
				},
				{
					"indexed": false,
					"internalType": "string",
					"name": "content",
					"type": "string"
				},
				{
					"indexed": false,
					"internalType": "address",
					"name": "author",
					"type": "address"
				},
				{
					"indexed": false,
					"internalType": "uint256",
					"name": "timestamp",
					"type": "uint256"
				}
			],
			"name": "PostPublished",
			"type": "event"
		},
		{
			"inputs": [
				{
					"internalType": "uint256",
					"name": "postId",
					"type": "uint256"
				},
				{
					"internalType": "string",
					"name": "commentText",
					"type": "string"
				}
			],
			"name": "addComment",
			"outputs": [],
			"stateMutability": "nonpayable",
			"type": "function"
		},
		{
			"inputs": [
				{
					"internalType": "uint256",
					"name": "postId",
					"type": "uint256"
				}
			],
			"name": "getPost",
			"outputs": [
				{
					"internalType": "string",
					"name": "",
					"type": "string"
				},
				{
					"internalType": "string",
					"name": "",
					"type": "string"
				},
				{
					"internalType": "address",
					"name": "",
					"type": "address"
				},
				{
					"internalType": "uint256",
					"name": "",
					"type": "uint256"
				},
				{
					"components": [
						{
							"internalType": "string",
							"name": "commentText",
							"type": "string"
						},
						{
							"internalType": "address",
							"name": "commenter",
							"type": "address"
						},
						{
							"internalType": "uint256",
							"name": "timestamp",
							"type": "uint256"
						}
					],
					"internalType": "struct CommunityBloggingPlatform.Comment[]",
					"name": "",
					"type": "tuple[]"
				}
			],
			"stateMutability": "view",
			"type": "function"
		},
		{
			"inputs": [],
			"name": "getPostCount",
			"outputs": [
				{
					"internalType": "uint256",
					"name": "",
					"type": "uint256"
				}
			],
			"stateMutability": "view",
			"type": "function"
		},
		{
			"inputs": [
				{
					"internalType": "string",
					"name": "title",
					"type": "string"
				},
				{
					"internalType": "string",
					"name": "content",
					"type": "string"
				}
			],
			"name": "publishPost",
			"outputs": [],
			"stateMutability": "nonpayable",
			"type": "function"
		}
	]
}